:020000040800F2
:1000000000000120C5020008CB020008CF02000852
:1000100041030008450300088D03000800000000AC
:10002000000000000000000000000000D5030008F0
:10003000D903000800000000DD0300083D0E0008A1
:10004000F1030008F1030008F1030008F1030008C0
:10005000F1030008F1030008F1030008F1030008B0
:10006000F1030008F1030008F1030008F1030008A0
:10007000F1030008F1030008F1030008F103000890
:10008000F1030008F1030008F1030008000000007C
:10009000000000000000000000000000F103000864
:1000A000F1030008F1030008F1030008F103000860
:1000B000F1030008F1030008F1030008F103000850
:1000C000F1030008F1030008F1030008F103000840
:1000D000F1030008F1030008F1030008000000002C
:1000E000F1030008F1030008F1030008000000001C
:1000F000000000000000000000000000F103000804
:1001000000000000F1030008F1030008F1030008FB
:1001100000000000000000000000000000000000DF
:10012000F1030008F1030008F1030008F1030008DF
:10013000F1030008000000000000000000000000C3
:10014000000000000000000000000000F1030008B3
:10015000F1030008F1030008F1030008F1030008AF
:10016000F1030008F1030008000000000000000097
:10017000000000000000000000000000000000007F
:1001800000000000F1030008000000000000000073
:10019000F103000800B583B000F0BAF9384B394AD2
:1001A0001360394A1360394900E02146384B9942BF
:1001B0000BD20A684B6801F10C0488689842F4D9A4
:1001C0001168196004330432F8E72E4B1A68314B7A
:1001D0009A4200D0FEE72C4B1A682F4B9A42F9D175
:1001E000274B2E4A13602E4A13602E4B05E0002049
:1001F000106004329342FAD80B462B4A934204D241
:10020000194651F8082B5B68F4E7244B1B6813B9B7
:10021000234B1B6803B1FEE700F086F9694601A88D
:1002200000F022F9214C224BE41AA4100025AC4224
:1002300014DC204C204BE41AA4100025AC4213DC43
:100240000099019800F012FE05461C4C1C4BE41A64
:10025000A410002C0EDC284600F0E2F8144B53F8F2
:10026000253098470135E2E7134B53F8253098477E
:100270000135E3E7013C124B53F824309847E8E797
:10028000BABADECA00000020A4000020F40300086F
:100290000C0400087856341232547698A8000020D6
:1002A000480100200C0400081C0400081C0400087D
:1002B0001C0400081C0400081C0400081C0400089E
:1002C0001C04000808B5FFF765FF00BEFEE71EF03E
:1002D000040F0CBFEFF30880EFF309807146414A29
:1002E00010472DE9F04182B004468846124B5E6B00
:1002F0009F6B9D6A1B6B13F0020F03D00E4BDB6AE2
:10030000002B0CDB0D4800F0B7F8CDF800803B4621
:1003100032462946204600F00BF900BEFEE74BF6B8
:10032000AB6100F07FF90028ECD0034B4FF00042A6
:10033000DA6202B0BDE8F08100ED00E0A418000828
:1003400000BEFEE71EF0040F0CBFEFF30880EFF3D2
:1003500009807146244A10472DE9F04182B00446D5
:100360008846084B5E6B9F6B9D6A074800F084F8D7
:10037000CDF800803B4632462946204600F0D8F8AA
:1003800000BEFEE700ED00E0B41800081EF0040F08
:100390000CBFEFF30880EFF309807146134A104752
:1003A0002DE9F04182B004468846084B5E6B9F6B96
:1003B0009D6A074800F060F8CDF800803B46324661
:1003C0002946204600F0B4F800BEFEE700ED00E04C
:1003D000C018000800BEFEE700BEFEE700BEFEE754
:1003E00070470000E302000859030008A103000859
:0403F00000BEFEE766
:1003F4001419000800000020A800002014190008A7
:100404000000001000000010A80000204C01002093
:080414000000001000000010C0
:10042000FEE7000008B503460C4A12685AB10B4AB1
:100430001068033323F003030344094A934206D8A8
:10044000064A136008BD054A06491160EFE700F04F
:1004500021FD0C2303604FF0FF30F3E7AC000020D8
:1004600000FC00204C01002001230360014B0B60C5
:10047000704700BF040000200FB400B583B004AB88
:1004800053F8042B01938021064800F035FD002825
:1004900003DD0146034800F037F803B05DF804EBD4
:1004A00004B07047B40000202DE9F04385B0044645
:1004B0000F4643560BB10E461EE004252846214642
:1004C000ABBE0446384605B0BDE8F08314F9011B05
:1004D00004AA1A4402F8101C0133AB42F6D304AA52
:1004E0001344002203F8102C4FF00408E94640465C
:1004F0004946ABBE8046761B002EE3D03546102E13
:1005000028BF10250023E8E708B5FFF7CDFF08BD99
:1005100008B500F097F8024A024B9A6008BD00BF88
:100520000000000800ED00E008B500F0ABF808BDE1
:10053000F8B504460D4617461E462748FFF79CFFB0
:1005400021682648FFF798FF61682548FFF794FF68
:10055000A1682448FFF790FFE1682348FFF78CFF6C
:1005600021692248FFF788FF61692148FFF784FF6E
:10057000A1692048FFF780FFE1691F48FFF77CFF72
:100580001E48FFF779FF29461D48FFF775FF1D4CF0
:10059000E16A1D48FFF770FF216B1C48FFF76CFFF5
:1005A000E16B1B48FFF768FF15F0800F0AD115F4C7
:1005B000004F0CD11748FFF75FFF06991648FFF769
:1005C0005BFFF8BD39461548FFF756FFEFE73146A8
:1005D0001348FFF751FFEDE7881700089817000848
:1005E000A8170008B8170008C8170008D81700088F
:1005F000E8170008F817000808180008181800087D
:100600002418000800ED00E0341800084418000821
:1006100054180008841800088C1800086418000892
:100620007418000883691A888A4201D00020704734
:100630000268033A012A03D802338361012070471C
:10064000002070470C4B1A6842F001021A6000212A
:1006500099601A6822F0847222F480321A60074A84
:100660005A601A6822F480221A60D960044B4FF055
:1006700000629A60704700BF0038024010300024CA
:1006800000ED00E0224B9B6803F00C03042B14D018
:10069000082B16D01BB11F4B1F4A1A6002E01D4BDE
:1006A0001D4A1A601A4B9B68C3F303131B4AD15CA3
:1006B000184A1368CB4013607047164B184A1A60EB
:1006C000F0E7134B5A685B6803F03F0312F4800FA6
:1006D00013D0134AB2FBF3F20D4B5B68C3F38813DC
:1006E00003FB02F30A4A5268C2F30142013252008C
:1006F000B3FBF2F3074A1360D4E7074AB2FBF3F205
:10070000034B5B68C3F3881303FB02F3EAE700BF04
:10071000003802400C0000200024F400D01800082B
:1007200040787D01022800F2D9800F2900F2D6809E
:10073000032A00F2D38010B4032A08D8DFE802F0BD
:1007400002396B9D012814D018B1022821D010BCA9
:100750007047634B18684900012202FA01F420EA4D
:1007600004001860186811448A4020EA02021A60E6
:10077000EDE75C4B18684900012202FA01F420EA17
:1007800004001860186811448A4020EA02021A60C6
:10079000DDE7554B18684900012202FA01F420EA0E
:1007A00004001860186811448A4020EA02021A60A6
:1007B000CDE7012820D080B10228C8D14A4B186863
:1007C0004900012202FA01F420431860186811441C
:1007D0008A4020EA02021A60B9E7414B18684900D2
:1007E000012202FA01F420431860186811448A407B
:1007F00020EA02021A60AAE73A4B1868490001226F
:1008000002FA01F420431860186811448A4020EA73
:1008100002021A609BE7012820D080B1022896D1FD
:10082000314B18684900012202FA01F420EA040061
:100830001860186811448A4002431A6087E7284B01
:1008400018684900012202FA01F420EA0400186045
:10085000186811448A4002431A6078E7214B1868EF
:100860004900012202FA01F420EA04001860186825
:1008700011448A4002431A6069E7012820D088B1F8
:1008800002287FF464AF184B18684900012202FA6D
:1008900001F4204318601868114402FA01F1014381
:1008A000196054E70E4B18684900012202FA01F45E
:1008B00020431860186811448A4002431A6046E7D2
:1008C000084B18684900012202FA01F4204318601D
:1008D000186811448A4002431A6038E7704700BF25
:1008E000000002400004024000080240022803D831
:1008F0000F2901D8012A00D9704712B1012A21D04D
:10090000704701280CD010B1022812D070471C4843
:100910000368012202FA01F123EA01030360704730
:1009200018480368012202FA01F123EA0103036077
:10093000704714480368012202FA01F123EA010317
:100940000360704701280BD010B1022810D0704707
:100950000B480368012202FA01F10B430360704760
:1009600008480368012202FA01F10B430360704753
:1009700004480368012202FA01F10B430360BBE75C
:100980000400024004040240022800F2A8800F295B
:1009900000F2A580022A00F2A28010B4012A39D008
:1009A0001AB1022A68D010BC7047012822D088B141
:1009B0000228F8D14A4B18684900012202FA01F4D2
:1009C00020EA04001860186811448A4020EA0202F4
:1009D0001A60E8E7434B18684900012202FA01F463
:1009E00020EA04001860186811448A4020EA0202D4
:1009F0001A60D8E73C4B18684900012202FA01F45A
:100A000020EA04001860186811448A4020EA0202B3
:100A10001A60C8E7012820D080B10228C3D1304B2A
:100A200018684900012202FA01F42043186018688E
:100A300011448A4020EA02021A60B4E7294B186880
:100A40004900012202FA01F4204318601868114499
:100A50008A4020EA02021A60A5E7234B1868490081
:100A6000012202FA01F420431860186811448A40F8
:100A700020EA02021A6096E7012821D088B10228F4
:100A800091D1174B18684900012202FA01F420EABB
:100A9000040018601868114402FA01F1014319605A
:100AA00081E7104B18684900012202FA01F420EA9C
:100AB00004001860186811448A4002431A6072E703
:100AC000094B18684900012202FA01F420EA0400E7
:100AD0001860186811448A4002431A6063E770473F
:100AE000080802400800024008040240022803D817
:100AF0000F2901D8012A00D9704712B1012A18D054
:100B00007047012809D010B102280CD0704701238A
:100B100003FA01F1144B19607047012303FA01F144
:100B2000124B19607047012303FA01F1104B196051
:100B3000704701280AD010B102280ED0704710313A
:100B4000012303FA01F1084B1960704710310123AA
:100B500003FA01F1054B196070471031012303FAC4
:100B600001F1034B1960C7E7180002401804024066
:100B70001808024008B5012200210846FFF7D2FDFF
:100B8000002211461046FFF7B1FE0122002108465F
:100B9000FFF7FAFE012202210020FFF7C3FD002229
:100BA00002211046FFF7A2FE012202210020FFF7DA
:100BB000EBFE012211460020FFF7B4FD00220121C7
:100BC0001046FFF793FE012211460020FFF7DCFEDE
:100BD00008BD08B5002201211046FFF787FF052058
:100BE00000F012F9012211460020FFF77FFF0520D7
:100BF00000F00AF908BD38B50546072408E00022D0
:100C000011461046FFF772FFFFF7E3FF013C64B2A5
:100C1000002C07DBAC42F2D0012200210846FFF78E
:100C200065FFF1E738BD10B5072408E00122002177
:100C30000846FFF75BFFFFF7CCFF013C64B2002CD6
:100C4000F4DA10BD10B5072408E000221146104662
:100C5000FFF74CFFFFF7BDFF013C64B2002CF4DA54
:100C600010BD38B505460846FFF7C5FF07240BE061
:100C700045FA04F202F0010200210846FFF736FFB0
:100C8000FFF7A7FF013C64B2002CF1DA38BD08B5CC
:100C9000002202211046FFF729FF052000F0B4F8DA
:100CA000012202210020FFF721FF052000F0ACF80F
:100CB00008BD38B50546FFF7B6FFFFF7C3FFFFF7DE
:100CC000E6FF002410E02146285DFFF7CAFF9620CA
:100CD00000F09AF8FFF7DBFFFFF7A5FFFFF7B2FF81
:100CE000FFF7D5FF0134E4B2072CECD938BD000082
:100CF00038B505460C460E4B00221A700C4B18787E
:100D0000A4F10803984211DA2844FFF7D2FF094AF8
:100D100013780133DBB213700F2BEFD1044A137831
:100D200001331370034B00221A70E7E738BD00BF90
:100D300035010020340100200F4B1A6842F00102F7
:100D40001A601A6842F480321A601A6822F480220B
:100D50001A601A6842F080721A6008331A6822F02A
:100D600001021A601A6822F002021A601A6842F040
:100D700080021A60704700BF00380240032826D85E
:100D80001F2924D8032822D8DFE800F0020A121A0B
:100D90000F480368012202FA01F11943016070470C
:100DA0000C480368012202FA01F1194301607047FF
:100DB00009480368012202FA01F1194301607047F2
:100DC00006480368012202FA01F1194301607047E5
:100DD0003038024034380240403802404438024043
:100DE000074B1A6822F001021A601A6822F0020208
:100DF0001A600023034A136004321360704700BF77
:100E000010E000E014E000E008B50A4B1A6822F098
:100E100002021A6020F07F40074A10601A6842F010
:100E200001021A60034B1B6813F4803FFAD0FFF7EE
:100E3000D7FF08BD10E000E014E000E008B5084B63
:100E40001B6803B19847074B1B68074B1B78012BA6
:100E500000D008BDFFF7C4FF034B00221A70F8E76B
:100E60003801002010E000E03601002008B5FFF74F
:100E700063FF00210846FFF781FF01210020FFF7F3
:100E80007DFFFFF777FE2F210148FFF731FFFAE7DB
:100E900010000020014B1868704700BF4000002080
:100EA00030B5141E05469BB0184605DA8B232B601F
:100EB0004FF0FF301BB030BD4FF40273ADF80C3073
:100EC00014BF04F1FF332346029305934FF6FF73DB
:100ED00000910491ADF80E3002461E9B69462846EB
:100EE00000F072F8431CBCBF8B232B60002CE1D0B8
:100EF000009B00221A70DDE707B5009313460A46EF
:100F0000014603480068FFF7CBFF03B05DF804FB20
:100F1000400000202DE9F0478E689E4282460C4634
:100F20009046994637D88A8912F4906F31D0256857
:100F300009696F1A6569022305EB450595FBF3F511
:100F400009F101033B449D4238BF1D46530530D58E
:100F5000294600F07FFB064650B90C23CAF8003042
:100F6000A38943F04003A3814FF0FF30BDE8F08731
:100F70003A46216900F0FCFAA38923F4906343F018
:100F80008003A381266165613E44ED1B2660A56058
:100F90004E464E4500D94E4632464146206800F046
:100FA000F2FAA3689B1BA36023681E4426600020FE
:100FB000DCE72A4600F0A8FB06460028E2D12169BA
:100FC000504600F0F9FAC8E72DE9F04F9DB0804691
:100FD00003938B891D060C4616460FD50B696BB91A
:100FE000402100F037FB2060206128B90C23C8F8AD
:100FF00000304FF0FF30C7E04023636100230993C6
:1010000020238DF8293030238DF82A304FF0010B42
:1010100037463D4615F8013B0BB1252B3ED1B7EBCA
:10102000060A0BD05346324621464046FFF772FF70
:10103000013000F0A480099B534409933B78002BB6
:1010400000F09D8000234FF0FF32CDE9052304938B
:1010500007938DF853301A932F46052217F8011B7A
:101060004F4800F035FA049BD0B9D90644BF20227E
:101070008DF853201A0744BF2B228DF853202A786D
:101080002A2A15D0079A2F4600200A25394611F83A
:10109000013B303B092B4DD9B8B10FE02F46B8E7E3
:1010A0003F4A801A0BFA00F0184304903D46D3E7FC
:1010B000039A111D12680391002A01DB079204E0D4
:1010C000524243F00203079204933B782E2B0CD13B
:1010D0007B782A2B33D1039B1A1D1B680392002BAC
:1010E000B8BF4FF0FF33023705932E4D39780322F6
:1010F000284600F0EDF938B14023401B03FA00F018
:10110000049B034301370493397827488DF828104E
:1011100006227E1C00F0DCF9002838D0234B13BBDC
:10112000039B073323F0070308330393099B4B44C6
:1011300009936DE705FB023201200F46A6E7002365
:101140000137059319460A25384610F8012B303A25
:10115000092A03D9002BC8D00591C6E705FB012158
:1011600001230746F0E703AB00932246104B04A986
:101170004046AFF30080B0F1FF3F8146D6D1A3894E
:101180005B063FF536AF09981DB0BDE8F08F03ABA5
:1011900000932246064B04A9404600F081F8EAE796
:1011A000E0180008E6180008EA180008000000002F
:1011B000150F00082DE9F04791461F468A680B6914
:1011C000DDF820809342B8BF1346C9F8003091F88B
:1011D000432006460C4612B10133C9F8003023689B
:1011E000990642BFD9F800300233C9F800302568AB
:1011F00015F0060507D104F1190AE368D9F80020B3
:101200009B1AAB4228DC94F843302268003318BFA5
:10121000012392062DD404F1430239463046C047DB
:10122000013020D02368E568D9F8002003F00603D8
:10123000042B08BFAD1AA36822690CBF25EAE57527
:1012400000259342C4BF9B1AED184FF000091A34D1
:101250004D451AD1002008E0012352463946304658
:10126000C047013003D14FF0FF30BDE8F0870135B2
:10127000C3E7E1185A1C302081F84300224494F857
:10128000451082F843100233C5E701232246394650
:101290003046C0470130E6D009F10109D8E7000027
:1012A0002DE9F04301F1430C0C46097E85B06E290F
:1012B0001746064698460C9A00F0B38022D8632958
:1012C00036D00AD8002900F0B980582900F0838070
:1012D00004F1420584F8421032E0642901D0692902
:1012E000F6D120681368050603F104012AD51B68AE
:1012F0001160002B03DA2D225B4284F843206F48F3
:101300000A2239E0732900F09D8008D86F2920D087
:101310007029DDD1236843F02003236003E07529A1
:1013200017D07829D4D1782384F84530644855E023
:101330001368191D1B68116004F1420584F84230DE
:1013400001238CE01B68116010F0400F18BF1BB226
:10135000CFE713682568181D1060280601D51B68A3
:1013600002E06806FBD51B8854486F2914BF0A2287
:101370000822002184F843106568A560002DC0F2A2
:101380009580216821F004012160002B3DD1002DC2
:1013900040F08E806546082A0BD12368DB0708D50C
:1013A000236962689A42DEBF302305F8013C05F1EB
:1013B000FF35ACEB05032361CDF800803B4603AA63
:1013C00021463046FFF7F6FE01304DD14FF0FF3099
:1013D00005B0BDE8F083394884F8451013682168EA
:1013E0001D1D1B6815600A060BD5CA0744BF41F0D6
:1013F000200121601BB9226822F020022260102205
:10140000B7E74D0648BF9BB2EFE76546B3FBF2F185
:1014100002FB1133C35C05F8013D0B460029F5D1F1
:10142000B9E7136825686169181D106028061B68F4
:1014300001D5196002E06A06FBD5198000232361FB
:101440006546B9E71368191D11601D6862680021BF
:10145000284600F03DF808B1401B606063682361D6
:10146000002384F84330A7E723692A4639463046EB
:10147000C0470130AAD023689B0713D4E068039BC0
:101480009842B8BF1846A3E701234A46394630467A
:10149000C04701309AD00135E368039A9B1AAB42EA
:1014A000F2DCEBE7002504F11909F5E7002BACD1DC
:1014B000037884F8423004F142056CE7F118000823
:1014C00002190008000000000000000000000000F9
:1014D00001F0FF01102A2BDB10F0070F08D010F8E5
:1014E000013B013A8B422DD010F0070F42B3F6D1E9
:1014F000F0B441EA012141EA014122F007047FF002
:1015000000070023F0E80256083C85EA010586EA58
:10151000010685FA47F5A3FA87F586FA47F6A5FA94
:1015200087F68EB9EED1F0BC01F0FF0102F00702A0
:1015300032B110F8013B013A83EA010313B1F8D14B
:101540000020704701387047002D06BF354603382C
:10155000073815F0010F07D1013015F4807F02BF65
:10156000013015F4C03F0130F0BC0138704700BFB6
:1015700010B5431E0A44914200D110BD11F8014B31
:1015800003F8014FF7E7884210B501EB020307D8D3
:10159000421E99420AD011F8014B02F8014FF8E7B8
:1015A0008342F5D98118D21AD34200D110BD13F865
:1015B000014D01F8014DF7E738B50546002945D042
:1015C00051F8043C0C1F002BB8BFE41800F0D2F80F
:1015D0001F4A1368104633B9636014602846BDE89B
:1015E000384000F0C8B8A3420CD921686218934271
:1015F00004BF1A685B68636004BF5218226004600D
:10160000ECE713465A680AB1A242FAD91968581889
:10161000A0420BD120680144581882421960DDD1E4
:10162000106852685A6001441960D7E702D90C2348
:101630002B60D3E7206821188A4204BF11685268E2
:10164000626004BF091821605C60C7E738BD00BF55
:101650003C01002070B5CD1C25F0030508350C2D8C
:1016600038BF0C25002D064601DBA94203D90C2307
:101670003360002070BD00F07DF8214A14682146D7
:1016800091B9204C23681BB9304600F063F8206004
:101690002946304600F05EF8431C24D10C23336009
:1016A000304600F068F8E4E70B685B1B18D40B2B9E
:1016B0000FD90B60CD50CC18304600F05CF804F127
:1016C0000B00231D20F00700C31AD3D05A42E2506A
:1016D000D0E78C424B6816BF636013600C46EBE7A3
:1016E0000C464968CCE7C41C24F00304A04205D092
:1016F000211A304600F02EF80130CFD02560DBE70C
:101700003C01002040010020F8B5074614460E4673
:1017100021B91146BDE8F840FFF79CBF22B9FFF799
:101720004BFF25462846F8BD00F026F8A0420FD210
:1017300021463846FFF78EFF05460028F2D0314695
:101740002246FFF715FF31463846FFF735FFE9E738
:101750003546E7E738B5064C0023054608462360C2
:10176000FEF760FE431C02D1236803B12B6038BD35
:10177000440100207047704751F8043C181F002BAB
:10178000BCBF0B58C0187047537461636B206672FE
:10179000616D653A0A000000205230203D2020256E
:1017A0003038580A00000000205231203D2020250A
:1017B0003038580A00000000205232203D202025F9
:1017C0003038580A00000000205233203D202025E8
:1017D0003038580A0000000020523132203D2025C8
:1017E0003038580A00000000204C52203D202025AF
:1017F0003038580A00000000205043203D202025AA
:101800003038580A0000000020505352203D202557
:101810003038580A000000004653522F4641523AD1
:101820000A0000002043465352203D202025303836
:10183000580A00002048465352203D2020253038C9
:10184000580A00002044465352203D2020253038BD
:10185000580A00002041465352203D2020253038B0
:10186000580A0000204D4D464152203D2025303879
:10187000580A00002042464152203D2020253038A1
:10188000580A00004D6973630A000000204C522F73
:101890004558435F52455455524E3D2025303858E7
:1018A0000A0000005B486172644661756C745D0AF1
:1018B000000000005B4275734661756C745D0A0040
:1018C0005B55736167654661756C745D0A00000065
:1018D00000000000000000000102030406070809E0
:1018E000232D302B2000686C4C0065666745464709
:1018F000003031323334353637383941424344458C
:1019000046003031323334353637383961626364FA
:0319100065660009
:1019140078563412B0000020000000000024F400C7
:10192400007C02040804027C007E42427E00007EA9
:1019340008087E00007E12127E00007C0204080467
:10194400027C00007E52525200007E4242423C0021
:10195400440000200000000000000000000000001F
:101964000000000000000000000000000000000073
:101974000000000000000000000000000000000063
:101984000000000000000000000000000000000053
:101994000000000000000000000000000000000043
:1019A4000000000000000000000000000000000033
:0819B400000000003254769897
:040000050800019559
:00000001FF
